{
  "_format": "hh-sol-artifact-1",
  "contractName": "PopPussiesPopPopMoreTests",
  "sourceName": "contracts/PopPop.sol",
  "abi": [
    {
      "inputs": [
        {
          "internalType": "string",
          "name": "_name",
          "type": "string"
        },
        {
          "internalType": "string",
          "name": "_symbol",
          "type": "string"
        },
        {
          "internalType": "string",
          "name": "_initBaseURI",
          "type": "string"
        }
      ],
      "stateMutability": "nonpayable",
      "type": "constructor"
    },
    {
      "anonymous": false,
      "inputs": [
        {
          "indexed": true,
          "internalType": "address",
          "name": "owner",
          "type": "address"
        },
        {
          "indexed": true,
          "internalType": "address",
          "name": "approved",
          "type": "address"
        },
        {
          "indexed": true,
          "internalType": "uint256",
          "name": "tokenId",
          "type": "uint256"
        }
      ],
      "name": "Approval",
      "type": "event"
    },
    {
      "anonymous": false,
      "inputs": [
        {
          "indexed": true,
          "internalType": "address",
          "name": "owner",
          "type": "address"
        },
        {
          "indexed": true,
          "internalType": "address",
          "name": "operator",
          "type": "address"
        },
        {
          "indexed": false,
          "internalType": "bool",
          "name": "approved",
          "type": "bool"
        }
      ],
      "name": "ApprovalForAll",
      "type": "event"
    },
    {
      "anonymous": false,
      "inputs": [
        {
          "indexed": true,
          "internalType": "address",
          "name": "previousOwner",
          "type": "address"
        },
        {
          "indexed": true,
          "internalType": "address",
          "name": "newOwner",
          "type": "address"
        }
      ],
      "name": "OwnershipTransferred",
      "type": "event"
    },
    {
      "anonymous": false,
      "inputs": [
        {
          "indexed": true,
          "internalType": "address",
          "name": "from",
          "type": "address"
        },
        {
          "indexed": true,
          "internalType": "address",
          "name": "to",
          "type": "address"
        },
        {
          "indexed": true,
          "internalType": "uint256",
          "name": "tokenId",
          "type": "uint256"
        }
      ],
      "name": "Transfer",
      "type": "event"
    },
    {
      "inputs": [
        {
          "internalType": "address",
          "name": "to",
          "type": "address"
        },
        {
          "internalType": "uint256",
          "name": "tokenId",
          "type": "uint256"
        }
      ],
      "name": "approve",
      "outputs": [],
      "stateMutability": "nonpayable",
      "type": "function"
    },
    {
      "inputs": [
        {
          "internalType": "address",
          "name": "owner",
          "type": "address"
        }
      ],
      "name": "balanceOf",
      "outputs": [
        {
          "internalType": "uint256",
          "name": "",
          "type": "uint256"
        }
      ],
      "stateMutability": "view",
      "type": "function"
    },
    {
      "inputs": [],
      "name": "baseExtension",
      "outputs": [
        {
          "internalType": "string",
          "name": "",
          "type": "string"
        }
      ],
      "stateMutability": "view",
      "type": "function"
    },
    {
      "inputs": [],
      "name": "costFTM",
      "outputs": [
        {
          "internalType": "uint256",
          "name": "",
          "type": "uint256"
        }
      ],
      "stateMutability": "view",
      "type": "function"
    },
    {
      "inputs": [],
      "name": "costOATH",
      "outputs": [
        {
          "internalType": "uint256",
          "name": "",
          "type": "uint256"
        }
      ],
      "stateMutability": "view",
      "type": "function"
    },
    {
      "inputs": [
        {
          "internalType": "uint256",
          "name": "tokenId",
          "type": "uint256"
        }
      ],
      "name": "getApproved",
      "outputs": [
        {
          "internalType": "address",
          "name": "",
          "type": "address"
        }
      ],
      "stateMutability": "view",
      "type": "function"
    },
    {
      "inputs": [],
      "name": "giveawayAddr",
      "outputs": [
        {
          "internalType": "address",
          "name": "",
          "type": "address"
        }
      ],
      "stateMutability": "view",
      "type": "function"
    },
    {
      "inputs": [
        {
          "internalType": "address",
          "name": "owner",
          "type": "address"
        },
        {
          "internalType": "address",
          "name": "operator",
          "type": "address"
        }
      ],
      "name": "isApprovedForAll",
      "outputs": [
        {
          "internalType": "bool",
          "name": "",
          "type": "bool"
        }
      ],
      "stateMutability": "view",
      "type": "function"
    },
    {
      "inputs": [],
      "name": "maxMintAmount",
      "outputs": [
        {
          "internalType": "uint256",
          "name": "",
          "type": "uint256"
        }
      ],
      "stateMutability": "view",
      "type": "function"
    },
    {
      "inputs": [],
      "name": "maxSupply",
      "outputs": [
        {
          "internalType": "uint256",
          "name": "",
          "type": "uint256"
        }
      ],
      "stateMutability": "view",
      "type": "function"
    },
    {
      "inputs": [
        {
          "internalType": "uint256",
          "name": "_mintAmount",
          "type": "uint256"
        }
      ],
      "name": "mintFTM",
      "outputs": [],
      "stateMutability": "payable",
      "type": "function"
    },
    {
      "inputs": [
        {
          "internalType": "address[]",
          "name": "_addresses",
          "type": "address[]"
        }
      ],
      "name": "mintFirstHalf",
      "outputs": [],
      "stateMutability": "nonpayable",
      "type": "function"
    },
    {
      "inputs": [
        {
          "internalType": "uint256",
          "name": "_mintAmount",
          "type": "uint256"
        }
      ],
      "name": "mintOATH",
      "outputs": [],
      "stateMutability": "payable",
      "type": "function"
    },
    {
      "inputs": [],
      "name": "name",
      "outputs": [
        {
          "internalType": "string",
          "name": "",
          "type": "string"
        }
      ],
      "stateMutability": "view",
      "type": "function"
    },
    {
      "inputs": [],
      "name": "oldContract",
      "outputs": [
        {
          "internalType": "address",
          "name": "",
          "type": "address"
        }
      ],
      "stateMutability": "view",
      "type": "function"
    },
    {
      "inputs": [],
      "name": "owner",
      "outputs": [
        {
          "internalType": "address",
          "name": "",
          "type": "address"
        }
      ],
      "stateMutability": "view",
      "type": "function"
    },
    {
      "inputs": [
        {
          "internalType": "uint256",
          "name": "tokenId",
          "type": "uint256"
        }
      ],
      "name": "ownerOf",
      "outputs": [
        {
          "internalType": "address",
          "name": "",
          "type": "address"
        }
      ],
      "stateMutability": "view",
      "type": "function"
    },
    {
      "inputs": [
        {
          "internalType": "bool",
          "name": "_state",
          "type": "bool"
        }
      ],
      "name": "pausePublic",
      "outputs": [],
      "stateMutability": "nonpayable",
      "type": "function"
    },
    {
      "inputs": [],
      "name": "publicPaused",
      "outputs": [
        {
          "internalType": "bool",
          "name": "",
          "type": "bool"
        }
      ],
      "stateMutability": "view",
      "type": "function"
    },
    {
      "inputs": [],
      "name": "renounceOwnership",
      "outputs": [],
      "stateMutability": "nonpayable",
      "type": "function"
    },
    {
      "inputs": [
        {
          "internalType": "uint256",
          "name": "_tokenId",
          "type": "uint256"
        },
        {
          "internalType": "uint256",
          "name": "_salePrice",
          "type": "uint256"
        }
      ],
      "name": "royaltyInfo",
      "outputs": [
        {
          "internalType": "address",
          "name": "Receiver",
          "type": "address"
        },
        {
          "internalType": "uint256",
          "name": "royaltyAmount",
          "type": "uint256"
        }
      ],
      "stateMutability": "view",
      "type": "function"
    },
    {
      "inputs": [
        {
          "internalType": "address",
          "name": "from",
          "type": "address"
        },
        {
          "internalType": "address",
          "name": "to",
          "type": "address"
        },
        {
          "internalType": "uint256",
          "name": "tokenId",
          "type": "uint256"
        }
      ],
      "name": "safeTransferFrom",
      "outputs": [],
      "stateMutability": "nonpayable",
      "type": "function"
    },
    {
      "inputs": [
        {
          "internalType": "address",
          "name": "from",
          "type": "address"
        },
        {
          "internalType": "address",
          "name": "to",
          "type": "address"
        },
        {
          "internalType": "uint256",
          "name": "tokenId",
          "type": "uint256"
        },
        {
          "internalType": "bytes",
          "name": "_data",
          "type": "bytes"
        }
      ],
      "name": "safeTransferFrom",
      "outputs": [],
      "stateMutability": "nonpayable",
      "type": "function"
    },
    {
      "inputs": [
        {
          "internalType": "address",
          "name": "operator",
          "type": "address"
        },
        {
          "internalType": "bool",
          "name": "approved",
          "type": "bool"
        }
      ],
      "name": "setApprovalForAll",
      "outputs": [],
      "stateMutability": "nonpayable",
      "type": "function"
    },
    {
      "inputs": [
        {
          "internalType": "string",
          "name": "_newBaseExtension",
          "type": "string"
        }
      ],
      "name": "setBaseExtension",
      "outputs": [],
      "stateMutability": "nonpayable",
      "type": "function"
    },
    {
      "inputs": [
        {
          "internalType": "string",
          "name": "_newBaseURI",
          "type": "string"
        }
      ],
      "name": "setBaseURI",
      "outputs": [],
      "stateMutability": "nonpayable",
      "type": "function"
    },
    {
      "inputs": [
        {
          "internalType": "uint256",
          "name": "_newCost",
          "type": "uint256"
        }
      ],
      "name": "setCostFTM",
      "outputs": [],
      "stateMutability": "nonpayable",
      "type": "function"
    },
    {
      "inputs": [
        {
          "internalType": "uint256",
          "name": "_newmaxMintAmount",
          "type": "uint256"
        }
      ],
      "name": "setmaxMintAmount",
      "outputs": [],
      "stateMutability": "nonpayable",
      "type": "function"
    },
    {
      "inputs": [
        {
          "internalType": "bytes4",
          "name": "interfaceId",
          "type": "bytes4"
        }
      ],
      "name": "supportsInterface",
      "outputs": [
        {
          "internalType": "bool",
          "name": "",
          "type": "bool"
        }
      ],
      "stateMutability": "view",
      "type": "function"
    },
    {
      "inputs": [],
      "name": "symbol",
      "outputs": [
        {
          "internalType": "string",
          "name": "",
          "type": "string"
        }
      ],
      "stateMutability": "view",
      "type": "function"
    },
    {
      "inputs": [
        {
          "internalType": "uint256",
          "name": "index",
          "type": "uint256"
        }
      ],
      "name": "tokenByIndex",
      "outputs": [
        {
          "internalType": "uint256",
          "name": "",
          "type": "uint256"
        }
      ],
      "stateMutability": "view",
      "type": "function"
    },
    {
      "inputs": [
        {
          "internalType": "address",
          "name": "owner",
          "type": "address"
        },
        {
          "internalType": "uint256",
          "name": "index",
          "type": "uint256"
        }
      ],
      "name": "tokenOfOwnerByIndex",
      "outputs": [
        {
          "internalType": "uint256",
          "name": "",
          "type": "uint256"
        }
      ],
      "stateMutability": "view",
      "type": "function"
    },
    {
      "inputs": [
        {
          "internalType": "uint256",
          "name": "tokenId",
          "type": "uint256"
        }
      ],
      "name": "tokenURI",
      "outputs": [
        {
          "internalType": "string",
          "name": "",
          "type": "string"
        }
      ],
      "stateMutability": "view",
      "type": "function"
    },
    {
      "inputs": [],
      "name": "totalSupply",
      "outputs": [
        {
          "internalType": "uint256",
          "name": "",
          "type": "uint256"
        }
      ],
      "stateMutability": "view",
      "type": "function"
    },
    {
      "inputs": [
        {
          "internalType": "address",
          "name": "from",
          "type": "address"
        },
        {
          "internalType": "address",
          "name": "to",
          "type": "address"
        },
        {
          "internalType": "uint256",
          "name": "tokenId",
          "type": "uint256"
        }
      ],
      "name": "transferFrom",
      "outputs": [],
      "stateMutability": "nonpayable",
      "type": "function"
    },
    {
      "inputs": [
        {
          "internalType": "address",
          "name": "newOwner",
          "type": "address"
        }
      ],
      "name": "transferOwnership",
      "outputs": [],
      "stateMutability": "nonpayable",
      "type": "function"
    },
    {
      "inputs": [
        {
          "internalType": "address",
          "name": "_owner",
          "type": "address"
        }
      ],
      "name": "walletOfOwner",
      "outputs": [
        {
          "internalType": "uint256[]",
          "name": "",
          "type": "uint256[]"
        }
      ],
      "stateMutability": "view",
      "type": "function"
    },
    {
      "inputs": [],
      "name": "withdraw",
      "outputs": [],
      "stateMutability": "payable",
      "type": "function"
    }
  ],
  "bytecode": "0x60806040526040518060400160405280600581526020017f2e6a736f6e000000000000000000000000000000000000000000000000000000815250600f90805190602001906200005192919062000760565b50734ce9ba897ceed455b167eda9ed8973e882b35768601060006101000a81548173ffffffffffffffffffffffffffffffffffffffff021916908373ffffffffffffffffffffffffffffffffffffffff160217905550735cc61a78f164885776aa610fb0fe1257df78e59b601160006101000a81548173ffffffffffffffffffffffffffffffffffffffff021916908373ffffffffffffffffffffffffffffffffffffffff16021790555073841fad6eae12c286d1fd18d1d525dffa75c7effe601260006101000a81548173ffffffffffffffffffffffffffffffffffffffff021916908373ffffffffffffffffffffffffffffffffffffffff1602179055507385dec8c4b2680793661bca91a8f129607571863d601360006101000a81548173ffffffffffffffffffffffffffffffffffffffff021916908373ffffffffffffffffffffffffffffffffffffffff160217905550604051806060016040528073962a2880eb188ab4c2cfe9874247fcc60a243d1373ffffffffffffffffffffffffffffffffffffffff1673ffffffffffffffffffffffffffffffffffffffff168152602001736eff42a5cbb01cef1f3e1b8cc714a6d62731a01373ffffffffffffffffffffffffffffffffffffffff1673ffffffffffffffffffffffffffffffffffffffff16815260200173056abd53a55c187d738b4a982d36b4dfa506326a73ffffffffffffffffffffffffffffffffffffffff1673ffffffffffffffffffffffffffffffffffffffff16815250601490600362000293929190620007f1565b50620f42406015557321ada0d2ac28c3a5fa3cd2ee30882da8812279b6601660006101000a81548173ffffffffffffffffffffffffffffffffffffffff021916908373ffffffffffffffffffffffffffffffffffffffff160217905550680ad78ebc5ac62000006017556102ee60185560056019556001601a60006101000a81548160ff02191690831515021790555073056abd53a55c187d738b4a982d36b4dfa506326a601a60016101000a81548173ffffffffffffffffffffffffffffffffffffffff021916908373ffffffffffffffffffffffffffffffffffffffff1602179055506000604a60006101000a81548161ffff021916908361ffff160217905550348015620003a357600080fd5b5060405162006432380380620064328339818101604052810190620003c9919062000911565b82828160009080519060200190620003e392919062000760565b508060019080519060200190620003fc92919062000760565b5050506200041f620004136200049660201b60201c565b6200049e60201b60201c565b62000437632a55205a60e01b6200056460201b60201c565b62000448816200063d60201b60201c565b6200047b601a60019054906101000a900473ffffffffffffffffffffffffffffffffffffffff16620006e860201b60201c565b6200048d60066200072c60201b60201c565b50505062000c17565b600033905090565b6000600a60009054906101000a900473ffffffffffffffffffffffffffffffffffffffff16905081600a60006101000a81548173ffffffffffffffffffffffffffffffffffffffff021916908373ffffffffffffffffffffffffffffffffffffffff1602179055508173ffffffffffffffffffffffffffffffffffffffff168173ffffffffffffffffffffffffffffffffffffffff167f8be0079c531659141344cd1fd0a4f28419497f9722a3daafe3b4186f6b6457e060405160405180910390a35050565b63ffffffff60e01b817bffffffffffffffffffffffffffffffffffffffffffffffffffffffff19161415620005d0576040517f08c379a0000000000000000000000000000000000000000000000000000000008152600401620005c79062000a00565b60405180910390fd5b6001600b6000837bffffffffffffffffffffffffffffffffffffffffffffffffffffffff19167bffffffffffffffffffffffffffffffffffffffffffffffffffffffff1916815260200190815260200160002060006101000a81548160ff02191690831515021790555050565b6200064d6200049660201b60201c565b73ffffffffffffffffffffffffffffffffffffffff16620006736200073660201b60201c565b73ffffffffffffffffffffffffffffffffffffffff1614620006cc576040517f08c379a0000000000000000000000000000000000000000000000000000000008152600401620006c39062000a22565b60405180910390fd5b80600e9080519060200190620006e492919062000760565b5050565b80600c60006101000a81548173ffffffffffffffffffffffffffffffffffffffff021916908373ffffffffffffffffffffffffffffffffffffffff16021790555050565b80600d8190555050565b6000600a60009054906101000a900473ffffffffffffffffffffffffffffffffffffffff16905090565b8280546200076e9062000aea565b90600052602060002090601f016020900481019282620007925760008555620007de565b82601f10620007ad57805160ff1916838001178555620007de565b82800160010185558215620007de579182015b82811115620007dd578251825591602001919060010190620007c0565b5b509050620007ed919062000880565b5090565b8280548282559060005260206000209081019282156200086d579160200282015b828111156200086c5782518260006101000a81548173ffffffffffffffffffffffffffffffffffffffff021916908373ffffffffffffffffffffffffffffffffffffffff1602179055509160200191906001019062000812565b5b5090506200087c919062000880565b5090565b5b808211156200089b57600081600090555060010162000881565b5090565b6000620008b6620008b08462000a6d565b62000a44565b905082815260208101848484011115620008cf57600080fd5b620008dc84828562000ab4565b509392505050565b600082601f830112620008f657600080fd5b8151620009088482602086016200089f565b91505092915050565b6000806000606084860312156200092757600080fd5b600084015167ffffffffffffffff8111156200094257600080fd5b6200095086828701620008e4565b935050602084015167ffffffffffffffff8111156200096e57600080fd5b6200097c86828701620008e4565b925050604084015167ffffffffffffffff8111156200099a57600080fd5b620009a886828701620008e4565b9150509250925092565b6000620009c1601c8362000aa3565b9150620009ce8262000bc5565b602082019050919050565b6000620009e860208362000aa3565b9150620009f58262000bee565b602082019050919050565b6000602082019050818103600083015262000a1b81620009b2565b9050919050565b6000602082019050818103600083015262000a3d81620009d9565b9050919050565b600062000a5062000a63565b905062000a5e828262000b20565b919050565b6000604051905090565b600067ffffffffffffffff82111562000a8b5762000a8a62000b85565b5b62000a968262000bb4565b9050602081019050919050565b600082825260208201905092915050565b60005b8381101562000ad457808201518184015260208101905062000ab7565b8381111562000ae4576000848401525b50505050565b6000600282049050600182168062000b0357607f821691505b6020821081141562000b1a5762000b1962000b56565b5b50919050565b62000b2b8262000bb4565b810181811067ffffffffffffffff8211171562000b4d5762000b4c62000b85565b5b80604052505050565b7f4e487b7100000000000000000000000000000000000000000000000000000000600052602260045260246000fd5b7f4e487b7100000000000000000000000000000000000000000000000000000000600052604160045260246000fd5b6000601f19601f8301169050919050565b7f4552433136353a20696e76616c696420696e7465726661636520696400000000600082015250565b7f4f776e61626c653a2063616c6c6572206973206e6f7420746865206f776e6572600082015250565b61580b8062000c276000396000f3fe6080604052600436106102255760003560e01c80636aa2b39611610123578063b88d4fde116100ab578063da3ef23f1161006f578063da3ef23f146107f5578063e87233e11461081e578063e985e9c514610847578063f2fde38b14610884578063f79c173f146108ad57610225565b8063b88d4fde1461070e578063c668286214610737578063c87b56dd14610762578063d4f96a091461079f578063d5abeb01146107ca57610225565b806384dc4340116100f257806384dc4340146106575780638da5cb5b1461067357806395d89b411461069e578063a22cb465146106c9578063ad1093d5146106f257610225565b80636aa2b396146105af57806370a08231146105da578063715018a6146106175780637f00c7a61461062e57610225565b80632be15169116101b157806342842e0e1161017557806342842e0e146104a6578063438b6300146104cf5780634f6ccce71461050c57806355f804b3146105495780636352211e1461057257610225565b80632be15169146103e05780632f745c591461040b57806330503c4e1461044857806333e5346b146104735780633ccfd60b1461049c57610225565b80630bb12bb8116101f85780630bb12bb8146102f857806318160ddd14610323578063239c70ae1461034e57806323b872dd146103795780632a55205a146103a257610225565b806301ffc9a71461022a57806306fdde0314610267578063081812fc14610292578063095ea7b3146102cf575b600080fd5b34801561023657600080fd5b50610251600480360381019061024c91906140d4565b6108d6565b60405161025e91906148ea565b60405180910390f35b34801561027357600080fd5b5061027c61094e565b6040516102899190614905565b60405180910390f35b34801561029e57600080fd5b506102b960048036038101906102b49190614167565b6109e0565b6040516102c69190614801565b60405180910390f35b3480156102db57600080fd5b506102f660048036038101906102f19190614005565b610a65565b005b34801561030457600080fd5b5061030d610b7d565b60405161031a91906148ea565b60405180910390f35b34801561032f57600080fd5b50610338610b90565b6040516103459190614c07565b60405180910390f35b34801561035a57600080fd5b50610363610b9d565b6040516103709190614c07565b60405180910390f35b34801561038557600080fd5b506103a0600480360381019061039b9190613eff565b610ba3565b005b3480156103ae57600080fd5b506103c960048036038101906103c491906141b9565b610c03565b6040516103d792919061489f565b60405180910390f35b3480156103ec57600080fd5b506103f5610c5c565b6040516104029190614c07565b60405180910390f35b34801561041757600080fd5b50610432600480360381019061042d9190614005565b610c62565b60405161043f9190614c07565b60405180910390f35b34801561045457600080fd5b5061045d610d07565b60405161046a9190614801565b60405180910390f35b34801561047f57600080fd5b5061049a60048036038101906104959190614167565b610d2d565b005b6104a4610db3565b005b3480156104b257600080fd5b506104cd60048036038101906104c89190613eff565b610eaf565b005b3480156104db57600080fd5b506104f660048036038101906104f19190613e9a565b610ecf565b60405161050391906148c8565b60405180910390f35b34801561051857600080fd5b50610533600480360381019061052e9190614167565b610fc9565b6040516105409190614c07565b60405180910390f35b34801561055557600080fd5b50610570600480360381019061056b9190614126565b611060565b005b34801561057e57600080fd5b5061059960048036038101906105949190614167565b6110f6565b6040516105a69190614801565b60405180910390f35b3480156105bb57600080fd5b506105c46111a8565b6040516105d19190614c07565b60405180910390f35b3480156105e657600080fd5b5061060160048036038101906105fc9190613e9a565b6111ae565b60405161060e9190614c07565b60405180910390f35b34801561062357600080fd5b5061062c611266565b005b34801561063a57600080fd5b5061065560048036038101906106509190614167565b6112ee565b005b610671600480360381019061066c9190614167565b611374565b005b34801561067f57600080fd5b506106886118fe565b6040516106959190614801565b60405180910390f35b3480156106aa57600080fd5b506106b3611928565b6040516106c09190614905565b60405180910390f35b3480156106d557600080fd5b506106f060048036038101906106eb9190613fc9565b6119ba565b005b61070c60048036038101906107079190614167565b6119d0565b005b34801561071a57600080fd5b5061073560048036038101906107309190613f4e565b611e4f565b005b34801561074357600080fd5b5061074c611eb1565b6040516107599190614905565b60405180910390f35b34801561076e57600080fd5b5061078960048036038101906107849190614167565b611f3f565b6040516107969190614905565b60405180910390f35b3480156107ab57600080fd5b506107b4611fe9565b6040516107c19190614801565b60405180910390f35b3480156107d657600080fd5b506107df61200f565b6040516107ec9190614c07565b60405180910390f35b34801561080157600080fd5b5061081c60048036038101906108179190614126565b612015565b005b34801561082a57600080fd5b5061084560048036038101906108409190614041565b6120ab565b005b34801561085357600080fd5b5061086e60048036038101906108699190613ec3565b6122ca565b60405161087b91906148ea565b60405180910390f35b34801561089057600080fd5b506108ab60048036038101906108a69190613e9a565b61235e565b005b3480156108b957600080fd5b506108d460048036038101906108cf9190614082565b612456565b005b60006108e1826124ef565b806109475750600b6000837bffffffffffffffffffffffffffffffffffffffffffffffffffffffff19167bffffffffffffffffffffffffffffffffffffffffffffffffffffffff1916815260200190815260200160002060009054906101000a900460ff165b9050919050565b60606000805461095d90614f54565b80601f016020809104026020016040519081016040528092919081815260200182805461098990614f54565b80156109d65780601f106109ab576101008083540402835291602001916109d6565b820191906000526020600020905b8154815290600101906020018083116109b957829003601f168201915b5050505050905090565b60006109eb82612569565b610a2a576040517f08c379a0000000000000000000000000000000000000000000000000000000008152600401610a2190614ae7565b60405180910390fd5b6004600083815260200190815260200160002060009054906101000a900473ffffffffffffffffffffffffffffffffffffffff169050919050565b6000610a70826110f6565b90508073ffffffffffffffffffffffffffffffffffffffff168373ffffffffffffffffffffffffffffffffffffffff161415610ae1576040517f08c379a0000000000000000000000000000000000000000000000000000000008152600401610ad890614b67565b60405180910390fd5b8073ffffffffffffffffffffffffffffffffffffffff16610b006125d5565b73ffffffffffffffffffffffffffffffffffffffff161480610b2f5750610b2e81610b296125d5565b6122ca565b5b610b6e576040517f08c379a0000000000000000000000000000000000000000000000000000000008152600401610b6590614a67565b60405180910390fd5b610b7883836125dd565b505050565b601a60009054906101000a900460ff1681565b6000600880549050905090565b60195481565b610bb4610bae6125d5565b82612696565b610bf3576040517f08c379a0000000000000000000000000000000000000000000000000000000008152600401610bea90614b87565b60405180910390fd5b610bfe838383612774565b505050565b600080600c60009054906101000a900473ffffffffffffffffffffffffffffffffffffffff169150610c53600d54610c456064866129db90919063ffffffff16565b6129f190919063ffffffff16565b90509250929050565b60175481565b6000610c6d836111ae565b8210610cae576040517f08c379a0000000000000000000000000000000000000000000000000000000008152600401610ca590614947565b60405180910390fd5b600660008473ffffffffffffffffffffffffffffffffffffffff1673ffffffffffffffffffffffffffffffffffffffff168152602001908152602001600020600083815260200190815260200160002054905092915050565b601060009054906101000a900473ffffffffffffffffffffffffffffffffffffffff1681565b610d356125d5565b73ffffffffffffffffffffffffffffffffffffffff16610d536118fe565b73ffffffffffffffffffffffffffffffffffffffff1614610da9576040517f08c379a0000000000000000000000000000000000000000000000000000000008152600401610da090614b07565b60405180910390fd5b8060158190555050565b610dbb6125d5565b73ffffffffffffffffffffffffffffffffffffffff16610dd96118fe565b73ffffffffffffffffffffffffffffffffffffffff1614610e2f576040517f08c379a0000000000000000000000000000000000000000000000000000000008152600401610e2690614b07565b60405180910390fd5b6000610e396118fe565b73ffffffffffffffffffffffffffffffffffffffff1647604051610e5c9061479e565b60006040518083038185875af1925050503d8060008114610e99576040519150601f19603f3d011682016040523d82523d6000602084013e610e9e565b606091505b5050905080610eac57600080fd5b50565b610eca83838360405180602001604052806000815250611e4f565b505050565b60606000610edc836111ae565b905060008167ffffffffffffffff811115610f20577f4e487b7100000000000000000000000000000000000000000000000000000000600052604160045260246000fd5b604051908082528060200260200182016040528015610f4e5781602001602082028036833780820191505090505b50905060005b82811015610fbe57610f668582610c62565b828281518110610f9f577f4e487b7100000000000000000000000000000000000000000000000000000000600052603260045260246000fd5b6020026020010181815250508080610fb690614fe2565b915050610f54565b508092505050919050565b6000610fd3610b90565b8210611014576040517f08c379a000000000000000000000000000000000000000000000000000000000815260040161100b90614bc7565b60405180910390fd5b6008828154811061104e577f4e487b7100000000000000000000000000000000000000000000000000000000600052603260045260246000fd5b90600052602060002001549050919050565b6110686125d5565b73ffffffffffffffffffffffffffffffffffffffff166110866118fe565b73ffffffffffffffffffffffffffffffffffffffff16146110dc576040517f08c379a00000000000000000000000000000000000000000000000000000000081526004016110d390614b07565b60405180910390fd5b80600e90805190602001906110f2929190613bfe565b5050565b6000806002600084815260200190815260200160002060009054906101000a900473ffffffffffffffffffffffffffffffffffffffff169050600073ffffffffffffffffffffffffffffffffffffffff168173ffffffffffffffffffffffffffffffffffffffff16141561119f576040517f08c379a000000000000000000000000000000000000000000000000000000000815260040161119690614aa7565b60405180910390fd5b80915050919050565b60155481565b60008073ffffffffffffffffffffffffffffffffffffffff168273ffffffffffffffffffffffffffffffffffffffff16141561121f576040517f08c379a000000000000000000000000000000000000000000000000000000000815260040161121690614a87565b60405180910390fd5b600360008373ffffffffffffffffffffffffffffffffffffffff1673ffffffffffffffffffffffffffffffffffffffff168152602001908152602001600020549050919050565b61126e6125d5565b73ffffffffffffffffffffffffffffffffffffffff1661128c6118fe565b73ffffffffffffffffffffffffffffffffffffffff16146112e2576040517f08c379a00000000000000000000000000000000000000000000000000000000081526004016112d990614b07565b60405180910390fd5b6112ec6000612a07565b565b6112f66125d5565b73ffffffffffffffffffffffffffffffffffffffff166113146118fe565b73ffffffffffffffffffffffffffffffffffffffff161461136a576040517f08c379a000000000000000000000000000000000000000000000000000000000815260040161136190614b07565b60405180910390fd5b8060198190555050565b600061137e610b90565b90506000601a60009054906101000a900460ff16156113d2576040517f08c379a00000000000000000000000000000000000000000000000000000000081526004016113c990614927565b60405180910390fd5b60008311611415576040517f08c379a000000000000000000000000000000000000000000000000000000000815260040161140c90614a47565b60405180910390fd5b60195483111561145a576040517f08c379a000000000000000000000000000000000000000000000000000000000815260040161145190614b47565b60405180910390fd5b60185483836114699190614d71565b11156114aa576040517f08c379a00000000000000000000000000000000000000000000000000000000081526004016114a190614be7565b60405180910390fd5b826017546114b89190614df8565b9050600060646005836114cb9190614df8565b6114d59190614dc7565b9050600060646005846114e89190614df8565b6114f29190614dc7565b905060006064605a856115059190614df8565b61150f9190614dc7565b9050601660009054906101000a900473ffffffffffffffffffffffffffffffffffffffff1673ffffffffffffffffffffffffffffffffffffffff166323b872dd33601460008154811061158b577f4e487b7100000000000000000000000000000000000000000000000000000000600052603260045260246000fd5b9060005260206000200160009054906101000a900473ffffffffffffffffffffffffffffffffffffffff16866040518463ffffffff1660e01b81526004016115d59392919061481c565b602060405180830381600087803b1580156115ef57600080fd5b505af1158015611603573d6000803e3d6000fd5b505050506040513d601f19601f8201168201806040525081019061162791906140ab565b50601660009054906101000a900473ffffffffffffffffffffffffffffffffffffffff1673ffffffffffffffffffffffffffffffffffffffff166323b872dd3360146001815481106116a2577f4e487b7100000000000000000000000000000000000000000000000000000000600052603260045260246000fd5b9060005260206000200160009054906101000a900473ffffffffffffffffffffffffffffffffffffffff16856040518463ffffffff1660e01b81526004016116ec9392919061481c565b602060405180830381600087803b15801561170657600080fd5b505af115801561171a573d6000803e3d6000fd5b505050506040513d601f19601f8201168201806040525081019061173e91906140ab565b50601660009054906101000a900473ffffffffffffffffffffffffffffffffffffffff1673ffffffffffffffffffffffffffffffffffffffff166323b872dd3360146002815481106117b9577f4e487b7100000000000000000000000000000000000000000000000000000000600052603260045260246000fd5b9060005260206000200160009054906101000a900473ffffffffffffffffffffffffffffffffffffffff16846040518463ffffffff1660e01b81526004016118039392919061481c565b602060405180830381600087803b15801561181d57600080fd5b505af1158015611831573d6000803e3d6000fd5b505050506040513d601f19601f8201168201806040525081019061185591906140ab565b506000600190505b8681116118f5576000604a60009054906101000a900461ffff1633426001436118869190614e52565b4060405160200161189a94939291906147b3565b6040516020818303038152906040528051906020012060001c90506118d33360016118c484612acd565b6118ce9190614d71565b612e07565b86806118de90614fe2565b9750505080806118ed90614fe2565b91505061185d565b50505050505050565b6000600a60009054906101000a900473ffffffffffffffffffffffffffffffffffffffff16905090565b60606001805461193790614f54565b80601f016020809104026020016040519081016040528092919081815260200182805461196390614f54565b80156119b05780601f10611985576101008083540402835291602001916119b0565b820191906000526020600020905b81548152906001019060200180831161199357829003601f168201915b5050505050905090565b6119cc6119c56125d5565b8383612e25565b5050565b60006119da610b90565b90506000601a60009054906101000a900460ff1615611a2e576040517f08c379a0000000000000000000000000000000000000000000000000000000008152600401611a2590614927565b60405180910390fd5b60008311611a71576040517f08c379a0000000000000000000000000000000000000000000000000000000008152600401611a6890614a47565b60405180910390fd5b601954831115611ab6576040517f08c379a0000000000000000000000000000000000000000000000000000000008152600401611aad90614b47565b60405180910390fd5b6018548383611ac59190614d71565b1115611b06576040517f08c379a0000000000000000000000000000000000000000000000000000000008152600401611afd90614be7565b60405180910390fd5b611b0e6118fe565b73ffffffffffffffffffffffffffffffffffffffff163373ffffffffffffffffffffffffffffffffffffffff1614611b5b5782601554611b4e9190614df8565b341015611b5a57600080fd5b5b6000600190505b838111611bfa576000604a60009054906101000a900461ffff163342600143611b8b9190614e52565b40604051602001611b9f94939291906147b3565b6040516020818303038152906040528051906020012060001c9050611bd8336001611bc984612acd565b611bd39190614d71565b612e07565b8380611be390614fe2565b945050508080611bf290614fe2565b915050611b62565b503490506014600081548110611c39577f4e487b7100000000000000000000000000000000000000000000000000000000600052603260045260246000fd5b9060005260206000200160009054906101000a900473ffffffffffffffffffffffffffffffffffffffff1673ffffffffffffffffffffffffffffffffffffffff166108fc6064600584611c8c9190614df8565b611c969190614dc7565b9081150290604051600060405180830381858888f19350505050158015611cc1573d6000803e3d6000fd5b506014600181548110611cfd577f4e487b7100000000000000000000000000000000000000000000000000000000600052603260045260246000fd5b9060005260206000200160009054906101000a900473ffffffffffffffffffffffffffffffffffffffff1673ffffffffffffffffffffffffffffffffffffffff166108fc6064600584611d509190614df8565b611d5a9190614dc7565b9081150290604051600060405180830381858888f19350505050158015611d85573d6000803e3d6000fd5b506014600281548110611dc1577f4e487b7100000000000000000000000000000000000000000000000000000000600052603260045260246000fd5b9060005260206000200160009054906101000a900473ffffffffffffffffffffffffffffffffffffffff1673ffffffffffffffffffffffffffffffffffffffff166108fc6064605a84611e149190614df8565b611e1e9190614dc7565b9081150290604051600060405180830381858888f19350505050158015611e49573d6000803e3d6000fd5b50505050565b611e60611e5a6125d5565b83612696565b611e9f576040517f08c379a0000000000000000000000000000000000000000000000000000000008152600401611e9690614b87565b60405180910390fd5b611eab84848484612f92565b50505050565b600f8054611ebe90614f54565b80601f0160208091040260200160405190810160405280929190818152602001828054611eea90614f54565b8015611f375780601f10611f0c57610100808354040283529160200191611f37565b820191906000526020600020905b815481529060010190602001808311611f1a57829003601f168201915b505050505081565b6060611f4a82612569565b611f89576040517f08c379a0000000000000000000000000000000000000000000000000000000008152600401611f8090614b27565b60405180910390fd5b6000611f93612fee565b90506000815111611fb35760405180602001604052806000815250611fe1565b80611fbd84613080565b600f604051602001611fd19392919061476d565b6040516020818303038152906040525b915050919050565b601a60019054906101000a900473ffffffffffffffffffffffffffffffffffffffff1681565b60185481565b61201d6125d5565b73ffffffffffffffffffffffffffffffffffffffff1661203b6118fe565b73ffffffffffffffffffffffffffffffffffffffff1614612091576040517f08c379a000000000000000000000000000000000000000000000000000000000815260040161208890614b07565b60405180910390fd5b80600f90805190602001906120a7929190613bfe565b5050565b6120b36125d5565b73ffffffffffffffffffffffffffffffffffffffff166120d16118fe565b73ffffffffffffffffffffffffffffffffffffffff1614612127576040517f08c379a000000000000000000000000000000000000000000000000000000000815260040161211e90614b07565b60405180910390fd5b6000612131610b90565b905061017781111561214257600080fd5b600080600190505b601981116122c457601060009054906101000a900473ffffffffffffffffffffffffffffffffffffffff1673ffffffffffffffffffffffffffffffffffffffff16632f745c598583815181106121c9577f4e487b7100000000000000000000000000000000000000000000000000000000600052603260045260246000fd5b60200260200101516001866121de9190614d71565b6040518363ffffffff1660e01b81526004016121fb92919061489f565b60206040518083038186803b15801561221357600080fd5b505afa158015612227573d6000803e3d6000fd5b505050506040513d601f19601f8201168201806040525081019061224b9190614190565b91506122a3848481518110612289577f4e487b7100000000000000000000000000000000000000000000000000000000600052603260045260246000fd5b602002602001015160018561229e9190614d71565b612e07565b82806122ae90614fe2565b93505080806122bc90614fe2565b91505061214a565b50505050565b6000600560008473ffffffffffffffffffffffffffffffffffffffff1673ffffffffffffffffffffffffffffffffffffffff16815260200190815260200160002060008373ffffffffffffffffffffffffffffffffffffffff1673ffffffffffffffffffffffffffffffffffffffff16815260200190815260200160002060009054906101000a900460ff16905092915050565b6123666125d5565b73ffffffffffffffffffffffffffffffffffffffff166123846118fe565b73ffffffffffffffffffffffffffffffffffffffff16146123da576040517f08c379a00000000000000000000000000000000000000000000000000000000081526004016123d190614b07565b60405180910390fd5b600073ffffffffffffffffffffffffffffffffffffffff168173ffffffffffffffffffffffffffffffffffffffff16141561244a576040517f08c379a000000000000000000000000000000000000000000000000000000000815260040161244190614987565b60405180910390fd5b61245381612a07565b50565b61245e6125d5565b73ffffffffffffffffffffffffffffffffffffffff1661247c6118fe565b73ffffffffffffffffffffffffffffffffffffffff16146124d2576040517f08c379a00000000000000000000000000000000000000000000000000000000081526004016124c990614b07565b60405180910390fd5b80601a60006101000a81548160ff02191690831515021790555050565b60007f780e9d63000000000000000000000000000000000000000000000000000000007bffffffffffffffffffffffffffffffffffffffffffffffffffffffff1916827bffffffffffffffffffffffffffffffffffffffffffffffffffffffff1916148061256257506125618261322d565b5b9050919050565b60008073ffffffffffffffffffffffffffffffffffffffff166002600084815260200190815260200160002060009054906101000a900473ffffffffffffffffffffffffffffffffffffffff1673ffffffffffffffffffffffffffffffffffffffff1614159050919050565b600033905090565b816004600083815260200190815260200160002060006101000a81548173ffffffffffffffffffffffffffffffffffffffff021916908373ffffffffffffffffffffffffffffffffffffffff160217905550808273ffffffffffffffffffffffffffffffffffffffff16612650836110f6565b73ffffffffffffffffffffffffffffffffffffffff167f8c5be1e5ebec7d5bd14f71427d1e84f3dd0314c0f7b2291e5b200ac8c7c3b92560405160405180910390a45050565b60006126a182612569565b6126e0576040517f08c379a00000000000000000000000000000000000000000000000000000000081526004016126d790614a27565b60405180910390fd5b60006126eb836110f6565b90508073ffffffffffffffffffffffffffffffffffffffff168473ffffffffffffffffffffffffffffffffffffffff16148061275a57508373ffffffffffffffffffffffffffffffffffffffff16612742846109e0565b73ffffffffffffffffffffffffffffffffffffffff16145b8061276b575061276a81856122ca565b5b91505092915050565b8273ffffffffffffffffffffffffffffffffffffffff16612794826110f6565b73ffffffffffffffffffffffffffffffffffffffff16146127ea576040517f08c379a00000000000000000000000000000000000000000000000000000000081526004016127e1906149a7565b60405180910390fd5b600073ffffffffffffffffffffffffffffffffffffffff168273ffffffffffffffffffffffffffffffffffffffff16141561285a576040517f08c379a0000000000000000000000000000000000000000000000000000000008152600401612851906149e7565b60405180910390fd5b61286583838361330f565b6128706000826125dd565b6001600360008573ffffffffffffffffffffffffffffffffffffffff1673ffffffffffffffffffffffffffffffffffffffff16815260200190815260200160002060008282546128c09190614e52565b925050819055506001600360008473ffffffffffffffffffffffffffffffffffffffff1673ffffffffffffffffffffffffffffffffffffffff16815260200190815260200160002060008282546129179190614d71565b92505081905550816002600083815260200190815260200160002060006101000a81548173ffffffffffffffffffffffffffffffffffffffff021916908373ffffffffffffffffffffffffffffffffffffffff160217905550808273ffffffffffffffffffffffffffffffffffffffff168473ffffffffffffffffffffffffffffffffffffffff167fddf252ad1be2c89b69c2b068fc378daa952ba7f163c4a11628f55a4df523b3ef60405160405180910390a46129d6838383613423565b505050565b600081836129e99190614dc7565b905092915050565b600081836129ff9190614df8565b905092915050565b6000600a60009054906101000a900473ffffffffffffffffffffffffffffffffffffffff16905081600a60006101000a81548173ffffffffffffffffffffffffffffffffffffffff021916908373ffffffffffffffffffffffffffffffffffffffff1602179055508173ffffffffffffffffffffffffffffffffffffffff168173ffffffffffffffffffffffffffffffffffffffff167f8be0079c531659141344cd1fd0a4f28419497f9722a3daafe3b4186f6b6457e060405160405180910390a35050565b600080604a600081819054906101000a900461ffff1680929190612af090614fb7565b91906101000a81548161ffff021916908361ffff16021790555061ffff166102ee612b1b9190614e52565b905060008111612b60576040517f08c379a0000000000000000000000000000000000000000000000000000000008152600401612b5790614ba7565b60405180910390fd5b60008184612b6e9190615075565b9050610177811015612b8b5761017781612b889190614d71565b90505b6000601b826102ee8110612bc8577f4e487b7100000000000000000000000000000000000000000000000000000000600052603260045260246000fd5b601091828204019190066002029054906101000a900461ffff1661ffff161415612bf25780612c4c565b601b816102ee8110612c2d577f4e487b7100000000000000000000000000000000000000000000000000000000600052603260045260246000fd5b601091828204019190066002029054906101000a900461ffff1661ffff165b92506000601b600184612c5f9190614e52565b6102ee8110612c97577f4e487b7100000000000000000000000000000000000000000000000000000000600052603260045260246000fd5b601091828204019190066002029054906101000a900461ffff1661ffff1614612d2457601b600183612cc99190614e52565b6102ee8110612d01577f4e487b7100000000000000000000000000000000000000000000000000000000600052603260045260246000fd5b601091828204019190066002029054906101000a900461ffff1661ffff16612d32565b600182612d319190614e52565b5b601b826102ee8110612d6d577f4e487b7100000000000000000000000000000000000000000000000000000000600052603260045260246000fd5b601091828204019190066002026101000a81548161ffff021916908361ffff1602179055506000601b600184612da39190614e52565b6102ee8110612ddb577f4e487b7100000000000000000000000000000000000000000000000000000000600052603260045260246000fd5b601091828204019190066002026101000a81548161ffff021916908361ffff1602179055505050919050565b612e21828260405180602001604052806000815250613428565b5050565b8173ffffffffffffffffffffffffffffffffffffffff168373ffffffffffffffffffffffffffffffffffffffff161415612e94576040517f08c379a0000000000000000000000000000000000000000000000000000000008152600401612e8b90614a07565b60405180910390fd5b80600560008573ffffffffffffffffffffffffffffffffffffffff1673ffffffffffffffffffffffffffffffffffffffff16815260200190815260200160002060008473ffffffffffffffffffffffffffffffffffffffff1673ffffffffffffffffffffffffffffffffffffffff16815260200190815260200160002060006101000a81548160ff0219169083151502179055508173ffffffffffffffffffffffffffffffffffffffff168373ffffffffffffffffffffffffffffffffffffffff167f17307eab39ab6107e8899845ad3d59bd9653f200f220920489ca2b5937696c3183604051612f8591906148ea565b60405180910390a3505050565b612f9d848484612774565b612fa984848484613483565b612fe8576040517f08c379a0000000000000000000000000000000000000000000000000000000008152600401612fdf90614967565b60405180910390fd5b50505050565b6060600e8054612ffd90614f54565b80601f016020809104026020016040519081016040528092919081815260200182805461302990614f54565b80156130765780601f1061304b57610100808354040283529160200191613076565b820191906000526020600020905b81548152906001019060200180831161305957829003601f168201915b5050505050905090565b606060008214156130c8576040518060400160405280600181526020017f30000000000000000000000000000000000000000000000000000000000000008152509050613228565b600082905060005b600082146130fa5780806130e390614fe2565b915050600a826130f39190614dc7565b91506130d0565b60008167ffffffffffffffff81111561313c577f4e487b7100000000000000000000000000000000000000000000000000000000600052604160045260246000fd5b6040519080825280601f01601f19166020018201604052801561316e5781602001600182028036833780820191505090505b5090505b60008514613221576001826131879190614e52565b9150600a856131969190615075565b60306131a29190614d71565b60f81b8183815181106131de577f4e487b7100000000000000000000000000000000000000000000000000000000600052603260045260246000fd5b60200101907effffffffffffffffffffffffffffffffffffffffffffffffffffffffffffff1916908160001a905350600a8561321a9190614dc7565b9450613172565b8093505050505b919050565b60007f80ac58cd000000000000000000000000000000000000000000000000000000007bffffffffffffffffffffffffffffffffffffffffffffffffffffffff1916827bffffffffffffffffffffffffffffffffffffffffffffffffffffffff191614806132f857507f5b5e139f000000000000000000000000000000000000000000000000000000007bffffffffffffffffffffffffffffffffffffffffffffffffffffffff1916827bffffffffffffffffffffffffffffffffffffffffffffffffffffffff1916145b8061330857506133078261361a565b5b9050919050565b61331a838383613684565b600073ffffffffffffffffffffffffffffffffffffffff168373ffffffffffffffffffffffffffffffffffffffff16141561335d5761335881613689565b61339c565b8173ffffffffffffffffffffffffffffffffffffffff168373ffffffffffffffffffffffffffffffffffffffff161461339b5761339a83826136d2565b5b5b600073ffffffffffffffffffffffffffffffffffffffff168273ffffffffffffffffffffffffffffffffffffffff1614156133df576133da8161383f565b61341e565b8273ffffffffffffffffffffffffffffffffffffffff168273ffffffffffffffffffffffffffffffffffffffff161461341d5761341c8282613982565b5b5b505050565b505050565b6134328383613a01565b61343f6000848484613483565b61347e576040517f08c379a000000000000000000000000000000000000000000000000000000000815260040161347590614967565b60405180910390fd5b505050565b60006134a48473ffffffffffffffffffffffffffffffffffffffff16613bdb565b1561360d578373ffffffffffffffffffffffffffffffffffffffff1663150b7a026134cd6125d5565b8786866040518563ffffffff1660e01b81526004016134ef9493929190614853565b602060405180830381600087803b15801561350957600080fd5b505af192505050801561353a57506040513d601f19601f8201168201806040525081019061353791906140fd565b60015b6135bd573d806000811461356a576040519150601f19603f3d011682016040523d82523d6000602084013e61356f565b606091505b506000815114156135b5576040517f08c379a00000000000000000000000000000000000000000000000000000000081526004016135ac90614967565b60405180910390fd5b805181602001fd5b63150b7a0260e01b7bffffffffffffffffffffffffffffffffffffffffffffffffffffffff1916817bffffffffffffffffffffffffffffffffffffffffffffffffffffffff191614915050613612565b600190505b949350505050565b60007f01ffc9a7000000000000000000000000000000000000000000000000000000007bffffffffffffffffffffffffffffffffffffffffffffffffffffffff1916827bffffffffffffffffffffffffffffffffffffffffffffffffffffffff1916149050919050565b505050565b6008805490506009600083815260200190815260200160002081905550600881908060018154018082558091505060019003906000526020600020016000909190919091505550565b600060016136df846111ae565b6136e99190614e52565b90506000600760008481526020019081526020016000205490508181146137ce576000600660008673ffffffffffffffffffffffffffffffffffffffff1673ffffffffffffffffffffffffffffffffffffffff168152602001908152602001600020600084815260200190815260200160002054905080600660008773ffffffffffffffffffffffffffffffffffffffff1673ffffffffffffffffffffffffffffffffffffffff168152602001908152602001600020600084815260200190815260200160002081905550816007600083815260200190815260200160002081905550505b6007600084815260200190815260200160002060009055600660008573ffffffffffffffffffffffffffffffffffffffff1673ffffffffffffffffffffffffffffffffffffffff16815260200190815260200160002060008381526020019081526020016000206000905550505050565b600060016008805490506138539190614e52565b90506000600960008481526020019081526020016000205490506000600883815481106138a9577f4e487b7100000000000000000000000000000000000000000000000000000000600052603260045260246000fd5b9060005260206000200154905080600883815481106138f1577f4e487b7100000000000000000000000000000000000000000000000000000000600052603260045260246000fd5b906000526020600020018190555081600960008381526020019081526020016000208190555060096000858152602001908152602001600020600090556008805480613966577f4e487b7100000000000000000000000000000000000000000000000000000000600052603160045260246000fd5b6001900381819060005260206000200160009055905550505050565b600061398d836111ae565b905081600660008573ffffffffffffffffffffffffffffffffffffffff1673ffffffffffffffffffffffffffffffffffffffff168152602001908152602001600020600083815260200190815260200160002081905550806007600084815260200190815260200160002081905550505050565b600073ffffffffffffffffffffffffffffffffffffffff168273ffffffffffffffffffffffffffffffffffffffff161415613a71576040517f08c379a0000000000000000000000000000000000000000000000000000000008152600401613a6890614ac7565b60405180910390fd5b613a7a81612569565b15613aba576040517f08c379a0000000000000000000000000000000000000000000000000000000008152600401613ab1906149c7565b60405180910390fd5b613ac66000838361330f565b6001600360008473ffffffffffffffffffffffffffffffffffffffff1673ffffffffffffffffffffffffffffffffffffffff1681526020019081526020016000206000828254613b169190614d71565b92505081905550816002600083815260200190815260200160002060006101000a81548173ffffffffffffffffffffffffffffffffffffffff021916908373ffffffffffffffffffffffffffffffffffffffff160217905550808273ffffffffffffffffffffffffffffffffffffffff16600073ffffffffffffffffffffffffffffffffffffffff167fddf252ad1be2c89b69c2b068fc378daa952ba7f163c4a11628f55a4df523b3ef60405160405180910390a4613bd760008383613423565b5050565b6000808273ffffffffffffffffffffffffffffffffffffffff163b119050919050565b828054613c0a90614f54565b90600052602060002090601f016020900481019282613c2c5760008555613c73565b82601f10613c4557805160ff1916838001178555613c73565b82800160010185558215613c73579182015b82811115613c72578251825591602001919060010190613c57565b5b509050613c809190613c84565b5090565b5b80821115613c9d576000816000905550600101613c85565b5090565b6000613cb4613caf84614c47565b614c22565b90508083825260208201905082856020860282011115613cd357600080fd5b60005b85811015613d035781613ce98882613d89565b845260208401935060208301925050600181019050613cd6565b5050509392505050565b6000613d20613d1b84614c73565b614c22565b905082815260208101848484011115613d3857600080fd5b613d43848285614f12565b509392505050565b6000613d5e613d5984614ca4565b614c22565b905082815260208101848484011115613d7657600080fd5b613d81848285614f12565b509392505050565b600081359050613d9881615779565b92915050565b600082601f830112613daf57600080fd5b8135613dbf848260208601613ca1565b91505092915050565b600081359050613dd781615790565b92915050565b600081519050613dec81615790565b92915050565b600081359050613e01816157a7565b92915050565b600081519050613e16816157a7565b92915050565b600082601f830112613e2d57600080fd5b8135613e3d848260208601613d0d565b91505092915050565b600082601f830112613e5757600080fd5b8135613e67848260208601613d4b565b91505092915050565b600081359050613e7f816157be565b92915050565b600081519050613e94816157be565b92915050565b600060208284031215613eac57600080fd5b6000613eba84828501613d89565b91505092915050565b60008060408385031215613ed657600080fd5b6000613ee485828601613d89565b9250506020613ef585828601613d89565b9150509250929050565b600080600060608486031215613f1457600080fd5b6000613f2286828701613d89565b9350506020613f3386828701613d89565b9250506040613f4486828701613e70565b9150509250925092565b60008060008060808587031215613f6457600080fd5b6000613f7287828801613d89565b9450506020613f8387828801613d89565b9350506040613f9487828801613e70565b925050606085013567ffffffffffffffff811115613fb157600080fd5b613fbd87828801613e1c565b91505092959194509250565b60008060408385031215613fdc57600080fd5b6000613fea85828601613d89565b9250506020613ffb85828601613dc8565b9150509250929050565b6000806040838503121561401857600080fd5b600061402685828601613d89565b925050602061403785828601613e70565b9150509250929050565b60006020828403121561405357600080fd5b600082013567ffffffffffffffff81111561406d57600080fd5b61407984828501613d9e565b91505092915050565b60006020828403121561409457600080fd5b60006140a284828501613dc8565b91505092915050565b6000602082840312156140bd57600080fd5b60006140cb84828501613ddd565b91505092915050565b6000602082840312156140e657600080fd5b60006140f484828501613df2565b91505092915050565b60006020828403121561410f57600080fd5b600061411d84828501613e07565b91505092915050565b60006020828403121561413857600080fd5b600082013567ffffffffffffffff81111561415257600080fd5b61415e84828501613e46565b91505092915050565b60006020828403121561417957600080fd5b600061418784828501613e70565b91505092915050565b6000602082840312156141a257600080fd5b60006141b084828501613e85565b91505092915050565b600080604083850312156141cc57600080fd5b60006141da85828601613e70565b92505060206141eb85828601613e70565b9150509250929050565b60006142018383614738565b60208301905092915050565b61421681614e86565b82525050565b61422d61422882614e86565b61502b565b82525050565b600061423e82614cfa565b6142488185614d28565b935061425383614cd5565b8060005b8381101561428457815161426b88826141f5565b975061427683614d1b565b925050600181019050614257565b5085935050505092915050565b61429a81614e98565b82525050565b6142b16142ac82614ea4565b61503d565b82525050565b60006142c282614d05565b6142cc8185614d39565b93506142dc818560208601614f21565b6142e581615162565b840191505092915050565b60006142fb82614d10565b6143058185614d55565b9350614315818560208601614f21565b61431e81615162565b840191505092915050565b600061433482614d10565b61433e8185614d66565b935061434e818560208601614f21565b80840191505092915050565b6000815461436781614f54565b6143718186614d66565b9450600182166000811461438c576001811461439d576143d0565b60ff198316865281860193506143d0565b6143a685614ce5565b60005b838110156143c8578154818901526001820191506020810190506143a9565b838801955050505b50505092915050565b60006143e6601883614d55565b91506143f18261518d565b602082019050919050565b6000614409602b83614d55565b9150614414826151b6565b604082019050919050565b600061442c603283614d55565b915061443782615205565b604082019050919050565b600061444f602683614d55565b915061445a82615254565b604082019050919050565b6000614472602583614d55565b915061447d826152a3565b604082019050919050565b6000614495601c83614d55565b91506144a0826152f2565b602082019050919050565b60006144b8602483614d55565b91506144c38261531b565b604082019050919050565b60006144db601983614d55565b91506144e68261536a565b602082019050919050565b60006144fe602c83614d55565b915061450982615393565b604082019050919050565b6000614521600d83614d55565b915061452c826153e2565b602082019050919050565b6000614544603883614d55565b915061454f8261540b565b604082019050919050565b6000614567602a83614d55565b91506145728261545a565b604082019050919050565b600061458a602983614d55565b9150614595826154a9565b604082019050919050565b60006145ad602083614d55565b91506145b8826154f8565b602082019050919050565b60006145d0602c83614d55565b91506145db82615521565b604082019050919050565b60006145f3602083614d55565b91506145fe82615570565b602082019050919050565b6000614616602f83614d55565b915061462182615599565b604082019050919050565b6000614639602683614d55565b9150614644826155e8565b604082019050919050565b600061465c602183614d55565b915061466782615637565b604082019050919050565b600061467f600083614d4a565b915061468a82615686565b600082019050919050565b60006146a2603183614d55565b91506146ad82615689565b604082019050919050565b60006146c5600b83614d55565b91506146d0826156d8565b602082019050919050565b60006146e8602c83614d55565b91506146f382615701565b604082019050919050565b600061470b601583614d55565b915061471682615750565b602082019050919050565b61473261472d82614eda565b615047565b82525050565b61474181614f08565b82525050565b61475081614f08565b82525050565b61476761476282614f08565b61506b565b82525050565b60006147798286614329565b91506147858285614329565b9150614791828461435a565b9150819050949350505050565b60006147a982614672565b9150819050919050565b60006147bf8287614721565b6002820191506147cf828661421c565b6014820191506147df8285614756565b6020820191506147ef82846142a0565b60208201915081905095945050505050565b6000602082019050614816600083018461420d565b92915050565b6000606082019050614831600083018661420d565b61483e602083018561420d565b61484b6040830184614747565b949350505050565b6000608082019050614868600083018761420d565b614875602083018661420d565b6148826040830185614747565b818103606083015261489481846142b7565b905095945050505050565b60006040820190506148b4600083018561420d565b6148c16020830184614747565b9392505050565b600060208201905081810360008301526148e28184614233565b905092915050565b60006020820190506148ff6000830184614291565b92915050565b6000602082019050818103600083015261491f81846142f0565b905092915050565b60006020820190508181036000830152614940816143d9565b9050919050565b60006020820190508181036000830152614960816143fc565b9050919050565b600060208201905081810360008301526149808161441f565b9050919050565b600060208201905081810360008301526149a081614442565b9050919050565b600060208201905081810360008301526149c081614465565b9050919050565b600060208201905081810360008301526149e081614488565b9050919050565b60006020820190508181036000830152614a00816144ab565b9050919050565b60006020820190508181036000830152614a20816144ce565b9050919050565b60006020820190508181036000830152614a40816144f1565b9050919050565b60006020820190508181036000830152614a6081614514565b9050919050565b60006020820190508181036000830152614a8081614537565b9050919050565b60006020820190508181036000830152614aa08161455a565b9050919050565b60006020820190508181036000830152614ac08161457d565b9050919050565b60006020820190508181036000830152614ae0816145a0565b9050919050565b60006020820190508181036000830152614b00816145c3565b9050919050565b60006020820190508181036000830152614b20816145e6565b9050919050565b60006020820190508181036000830152614b4081614609565b9050919050565b60006020820190508181036000830152614b608161462c565b9050919050565b60006020820190508181036000830152614b808161464f565b9050919050565b60006020820190508181036000830152614ba081614695565b9050919050565b60006020820190508181036000830152614bc0816146b8565b9050919050565b60006020820190508181036000830152614be0816146db565b9050919050565b60006020820190508181036000830152614c00816146fe565b9050919050565b6000602082019050614c1c6000830184614747565b92915050565b6000614c2c614c3d565b9050614c388282614f86565b919050565b6000604051905090565b600067ffffffffffffffff821115614c6257614c61615133565b5b602082029050602081019050919050565b600067ffffffffffffffff821115614c8e57614c8d615133565b5b614c9782615162565b9050602081019050919050565b600067ffffffffffffffff821115614cbf57614cbe615133565b5b614cc882615162565b9050602081019050919050565b6000819050602082019050919050565b60008190508160005260206000209050919050565b600081519050919050565b600081519050919050565b600081519050919050565b6000602082019050919050565b600082825260208201905092915050565b600082825260208201905092915050565b600081905092915050565b600082825260208201905092915050565b600081905092915050565b6000614d7c82614f08565b9150614d8783614f08565b9250827fffffffffffffffffffffffffffffffffffffffffffffffffffffffffffffffff03821115614dbc57614dbb6150a6565b5b828201905092915050565b6000614dd282614f08565b9150614ddd83614f08565b925082614ded57614dec6150d5565b5b828204905092915050565b6000614e0382614f08565b9150614e0e83614f08565b9250817fffffffffffffffffffffffffffffffffffffffffffffffffffffffffffffffff0483118215151615614e4757614e466150a6565b5b828202905092915050565b6000614e5d82614f08565b9150614e6883614f08565b925082821015614e7b57614e7a6150a6565b5b828203905092915050565b6000614e9182614ee8565b9050919050565b60008115159050919050565b6000819050919050565b60007fffffffff0000000000000000000000000000000000000000000000000000000082169050919050565b600061ffff82169050919050565b600073ffffffffffffffffffffffffffffffffffffffff82169050919050565b6000819050919050565b82818337600083830152505050565b60005b83811015614f3f578082015181840152602081019050614f24565b83811115614f4e576000848401525b50505050565b60006002820490506001821680614f6c57607f821691505b60208210811415614f8057614f7f615104565b5b50919050565b614f8f82615162565b810181811067ffffffffffffffff82111715614fae57614fad615133565b5b80604052505050565b6000614fc282614eda565b915061ffff821415614fd757614fd66150a6565b5b600182019050919050565b6000614fed82614f08565b91507fffffffffffffffffffffffffffffffffffffffffffffffffffffffffffffffff8214156150205761501f6150a6565b5b600182019050919050565b600061503682615059565b9050919050565b6000819050919050565b600061505282615173565b9050919050565b600061506482615180565b9050919050565b6000819050919050565b600061508082614f08565b915061508b83614f08565b92508261509b5761509a6150d5565b5b828206905092915050565b7f4e487b7100000000000000000000000000000000000000000000000000000000600052601160045260246000fd5b7f4e487b7100000000000000000000000000000000000000000000000000000000600052601260045260246000fd5b7f4e487b7100000000000000000000000000000000000000000000000000000000600052602260045260246000fd5b7f4e487b7100000000000000000000000000000000000000000000000000000000600052604160045260246000fd5b6000601f19601f8301169050919050565b60008160f01b9050919050565b60008160601b9050919050565b7f4d696e742069732063757272656e746c79207061757365640000000000000000600082015250565b7f455243373231456e756d657261626c653a206f776e657220696e646578206f7560008201527f74206f6620626f756e6473000000000000000000000000000000000000000000602082015250565b7f4552433732313a207472616e7366657220746f206e6f6e20455243373231526560008201527f63656976657220696d706c656d656e7465720000000000000000000000000000602082015250565b7f4f776e61626c653a206e6577206f776e657220697320746865207a65726f206160008201527f6464726573730000000000000000000000000000000000000000000000000000602082015250565b7f4552433732313a207472616e736665722066726f6d20696e636f72726563742060008201527f6f776e6572000000000000000000000000000000000000000000000000000000602082015250565b7f4552433732313a20746f6b656e20616c7265616479206d696e74656400000000600082015250565b7f4552433732313a207472616e7366657220746f20746865207a65726f2061646460008201527f7265737300000000000000000000000000000000000000000000000000000000602082015250565b7f4552433732313a20617070726f766520746f2063616c6c657200000000000000600082015250565b7f4552433732313a206f70657261746f7220717565727920666f72206e6f6e657860008201527f697374656e7420746f6b656e0000000000000000000000000000000000000000602082015250565b7f43616e6e6f74206d696e74203000000000000000000000000000000000000000600082015250565b7f4552433732313a20617070726f76652063616c6c6572206973206e6f74206f7760008201527f6e6572206e6f7220617070726f76656420666f7220616c6c0000000000000000602082015250565b7f4552433732313a2062616c616e636520717565727920666f7220746865207a6560008201527f726f206164647265737300000000000000000000000000000000000000000000602082015250565b7f4552433732313a206f776e657220717565727920666f72206e6f6e657869737460008201527f656e7420746f6b656e0000000000000000000000000000000000000000000000602082015250565b7f4552433732313a206d696e7420746f20746865207a65726f2061646472657373600082015250565b7f4552433732313a20617070726f76656420717565727920666f72206e6f6e657860008201527f697374656e7420746f6b656e0000000000000000000000000000000000000000602082015250565b7f4f776e61626c653a2063616c6c6572206973206e6f7420746865206f776e6572600082015250565b7f4552433732314d657461646174613a2055524920717565727920666f72206e6f60008201527f6e6578697374656e7420746f6b656e0000000000000000000000000000000000602082015250565b7f416d6f756e7420746f206d696e74206c6172676572207468616e206d6178206160008201527f6c6c6f7765640000000000000000000000000000000000000000000000000000602082015250565b7f4552433732313a20617070726f76616c20746f2063757272656e74206f776e6560008201527f7200000000000000000000000000000000000000000000000000000000000000602082015250565b50565b7f4552433732313a207472616e736665722063616c6c6572206973206e6f74206f60008201527f776e6572206e6f7220617070726f766564000000000000000000000000000000602082015250565b7f6e6f20696473206c656674000000000000000000000000000000000000000000600082015250565b7f455243373231456e756d657261626c653a20676c6f62616c20696e646578206f60008201527f7574206f6620626f756e64730000000000000000000000000000000000000000602082015250565b7f4e6f7420656e6f756768206d696e7473206c6566740000000000000000000000600082015250565b61578281614e86565b811461578d57600080fd5b50565b61579981614e98565b81146157a457600080fd5b50565b6157b081614eae565b81146157bb57600080fd5b50565b6157c781614f08565b81146157d257600080fd5b5056fea264697066735822122034e0e52f85240c8fdfc90efd026579f5284f67f5b10f7ceba4bcb24b98e8813364736f6c63430008040033",
  "linkReferences": {},
  "deployedLinkReferences": {}
}